:020000040800F2
:1000000000000824E51F0008B91E0008BB1E0008F8
:10001000BD1E0008BF1E0008C11E00080000000031
:10002000000000000000000000000000C31E0008E7
:10003000C51E000800000000C71E0008C91E0008F9
:10004000352000083520000835200008352000083C
:10005000352000083520000835200008352000082C
:10006000352000083520000835200008352000081C
:10007000352000083520000835200008352000080C
:1000800035200008352000083520000835200008FC
:1000900035200008352000083520000835200008EC
:1000A00035200008352000083520000835200008DC
:1000B00035200008352000083520000835200008CC
:1000C00035200008352000083520000835200008BC
:1000D00035200008352000083520000835200008AC
:1000E00035200008352000080000000035200008F9
:1000F000352000083520000835200008352000088C
:10010000352000083520000835200008352000087B
:10011000352000083520000835200008352000086B
:10012000352000083520000835200008352000085B
:10013000352000083520000835200008352000084B
:1001400000000000000000000000000000000000AF
:10015000352000083520000835200008352000082B
:10016000352000083520000835200008352000081B
:100170003520000835200008352000080000000068
:1001800035200008352000083520000835200008FB
:1001900035200008352000083520000835200008EB
:1001A00035200008352000083520000835200008DB
:1001B00035200008352000083520000835200008CB
:1001C00035200008352000083520000835200008BB
:1001D00035200008352000083520000835200008AB
:1001E000352000083520000835200008352000089B
:1001F000352000083520000835200008352000088B
:10020000352000083520000835200008352000087A
:10021000352000083520000835200008352000086A
:1002200035200008352000083520000800000000B7
:1002300035200008352000080000000035200008A7
:10024000352000083520000835200008352000083A
:10025000352000083520000835200008352000082A
:10026000352000083520000835200008352000081A
:100270003520000835200008352000080000000067
:100280003520000835200008352000080000000057
:08029000000000003520000809
:10029800034613F8012B002AFBD1181A01387047BE
:1002A80010B5054C237833B9044B13B10448AFF3A8
:1002B80000800123237010BDF80100240000000015
:1002C800FC3E000808B5034B1BB103490348AFF3D4
:1002D800008008BD00000000FC010024FC3E00086E
:1002E80070B50D4D0D4C641BA4100026A64209D113
:1002F8000B4D0C4C03F0FEFD641BA4100026A64217
:1003080005D170BD55F8043B98470136EEE755F81E
:10031800043B98470136F2E7504100085041000875
:10032800504100085441000802440346934200D15A
:10033800704703F8011BF9E7F0B52DED028BB0EE1D
:10034800408B85B017460D9D0C9E18EE902A25F01F
:100358002005002AB6BF2D220022B1EE408B462D83
:100368000C461A7004D0452D00D10134022100E05A
:10037800032103AB019302AB009322463346B0EE50
:10038800480B00F075FB472D01D1FB071AD5462D08
:1003980000EB04030CD10278302A07D1B5EE408B6C
:1003A800F1EE10FA1CBFC4F1010434603268134442
:1003B800B5EE408BF1EE10FA08BF03933021039A93
:1003C8009A4207D3039B0E9A1B1A136005B0BDEC23
:1003D800028BF0BD541C03941170F0E7F7B50029A7
:1003E800BABF49422D232B2309290270437021DD0E
:1003F8000DF107031F460A2691FBF6F206FB1214BD
:100408003034632903F1FF3503F8014C0ADC30323C
:1004180005F8012C023B821CBB42144605D3201A66
:1004280003B0F0BD2B461146E6E713F8011B02F8AE
:10043800011BF1E7302319448370041DC170EEE7F6
:100448002DE9F04F8DB00C4616461F46DDF8588052
:10045800054601F045F8D0F800B05846FFF718FFF8
:1004680000230A93D8F800300590073323F00703D8
:1004780003F1080194F818902268C8F80010D3E92D
:100488000001C4E912019FEDA27B94ED120BB0EEBE
:10049800C06BB4EE476BF1EE10FA24DDB5EEC00B7D
:1004A800F1EE10FA02D52D2384F843309A499B4B7C
:1004B800B9F1470F94BF8846984622F004020323F7
:1004C800236122604FF0000A009733460BAA2146A9
:1004D800284600F0CFF9013040F089804FF0FF3016
:1004E8000DB0BDE8F08FB4EE400BF1EE10FA09D76D
:1004F80010EE903A002BBCBF2D2384F84330884976
:10050800884BD5E76368591C09F0DF0A3CD10623FC
:100518006360002303930AAB42F48062CDE9019340
:1005280009AB0093616822600DF123032846FFF7A9
:1005380003FFBAF1470F8046099908D1C81C02DBAE
:100548006368994241DDA9F102095FFA89F9B9F1B5
:10055800650F20D801394A4604F150000991FFF788
:100568003DFF0A9A1318012A8246236102DC226899
:10057800D20701D5013323619DF82330002BA3D086
:100588002D2384F843309FE7BAF1470FC1D1002BE0
:10059800BFD10123BCE7B9F1660F18D10029636800
:1005A8000BDD216113B92268D00702D501330B4452
:1005B8002361A1654FF0000ADEE713B92268D2076C
:1005C80001D50233F4E70123F2E74FF067090A9BEC
:1005D800994205DB23682161D807EAD54B1CE7E778
:1005E8000029D4BFC1F1020201221344E0E72368C5
:1005F8005A0507D42369424631462846B847013090
:100608002AD16BE7B9F1650F40F2DF8094ED127BD8
:10061800B5EE407BF1EE10FA33D10123424A314660
:100628002846B84701303FF459AFDDE909239A421B
:1006380002DB2368D8070FD5059B5A463146284662
:10064800B84701303FF44AAF4FF0000804F11A09E7
:100658000A9B013B434509DC23689B0700F10581A0
:10066800E0680B9B9842B8BF184639E701234A4611
:1006780031462846B84701303FF430AF08F1010849
:10068800E6E7099B002B2BDC0123274A3146284645
:10069800B84701303FF422AFDDE90923134302D103
:1006A8002368D907D8D5059B5A4631462846B84706
:1006B80001303FF413AF4FF0000904F11A0A099B07
:1006C8005B424B4501DC0A9B95E7012352463146C4
:1006D8002846B84701303FF401AF09F10109EEE7B8
:1006E8000A9AA36D9A42A8BF1A46002A914607DDC6
:1006F8001346314642462846B84701303FF4EEAE2D
:100708000023069304F11A0329EAE979079318E00C
:10071800FFFFFFFFFFFFEF7F183F00081C3F0008A7
:10072800203F0008243F0008283F00080123079ABB
:1007380031462846B84701303FF4D0AE069B013316
:100748000693D4F858A0069AAAEB09039342EDDC65
:10075800DDE909239A421BDB2368DA0718D4DDE9AF
:10076800092392451CDBA3EB0A09B9F1000F08DD48
:100778004B4608EB0A0231462846B84701303FF499
:10078800ADAE4FF0000829EAE97904F11A0A14E03D
:10079800059B5A4631462846B8470130DFD19DE6C9
:1007A800A3EB0209E1E70123524631462846B84740
:1007B80001303FF493AE08F10108DDE909239B1AE3
:1007C800A3EB09034345EEDC46E70A9A012A01DC5C
:1007D800DB0737D50123424631462846B847013062
:1007E8003FF47CAE059B5A4631462846B84701304F
:1007F8003FF474AE94ED127BB5EE407BF1EE10FA47
:100808001BD00A9B08F10102013B31462846B84734
:1008180001300ED162E601234A4631462846B847E0
:1008280001303FF45BAE08F101080A9B013B4345E8
:10083800F1DC534604F15002DEE64FF0000804F103
:100848001A09F2E701234246DFE701234A46314607
:100858002846B84701303FF441AE08F10108E36883
:100868000B9A9B1A4345F0DCFAE64FF0000804F1B6
:100878001909F4E72DE9F04791461F468A680B6984
:10088800DDF820809342B8BF1346C9F8003091F8CC
:10089800432006460C4612B10133C9F800302368DC
:1008A800990642BFD9F800300233C9F800302568EC
:1008B80015F0060507D104F1190AE368D9F80020F4
:1008C8009B1AAB4228DC94F843302268003318BFE7
:1008D800012392062DD404F1430239463046C0471D
:1008E800013020D02368E568D9F8002003F006031A
:1008F800042B08BFAD1AA36822690CBF25EAE57569
:1009080000259342C4BF9B1AED184FF000091A3412
:100918004D451AD1002008E0012352463946304699
:10092800C047013003D14FF0FF30BDE8F0870135F3
:10093800C3E7E1185A1C302081F84300224494F898
:10094800451082F843100233C5E701232246394691
:100958003046C0470130E6D009F10109D8E72DE952
:10096800F74F03690C69A34280467FDB013C01F124
:100978001407A00008F114052B18019357F8243028
:1009880055F8242001339A4207EB0009B2FBF3F62D
:1009980031D34FF0000ABC46AE46D3465CF8042B70
:1009A80093B206FB03A34FEA134A9BB2ABEB0303D4
:1009B800120CDEF800B006FB02A213FA8BF34FEA22
:1009C800124A1FFA82FBDEF80020CBEB124202EB40
:1009D80023429BB243EA0243E1454FEA224B4EF8D9
:1009E800043BDBD22B5833B9019B043B9D421A468A
:1009F80030D3C8F81040404600F09DFF002825DBA2
:100A0800013628464FF0000C57F8042BD0F800E0C8
:100A180093B2ACEB0303120C13FA8EF3C2EB1E4233
:100A280002EB23429BB243EA0243B9454FEA224C08
:100A380040F8043BE8D255F8242005EB84032AB992
:100A4800043B9D421A460BD3C8F81040304603B009
:100A5800BDE8F08F1268043B002ACAD1013CC5E703
:100A68001268043B002AEFD1013CEAE70020EEE7D8
:100A78002DE9F04F55EC104B95B0476A0891814627
:100A88000C9211931E9ECDE9024547B9102000F043
:100A98002BFDC0E90177C9F824000760C760D9F8C1
:100AA8002430196859B15A684A60012393408B6011
:100AB800484600F063FDD9F8243000221A602B1E46
:100AC800B9BF23F00043039300233360039CAA4B70
:100AD800BCBF01223260A3431AD1119A42F20F73AC
:100AE8001360029AC4F31303134300F0D0841F9BCE
:100AF80053B9A24B20E0A24B049308331F9A13600A
:100B0800049815B0BDE8F08F9C4B04930333F5E7C8
:100B18009DED027BB5EE407BF1EE10FA8DED0A7B80
:100B28000CD1119A012313601F9B002B00F0AC8499
:100B3800944B1F9A1360013B0493E1E713A912AA8F
:100B48009DED0A0B484600F06DFFC4F30A5501906D
:100B58001299002D46D00B98C0F31300DDE90A2343
:100B680040F07F5343F44013A5F2FF3A002607EE06
:100B780090AA43EC162BB8EEE75B9FED794BB7EEE6
:100B8800087B36EE477B9FED786BA7EE046BB0EEE3
:100B9800467B9FED776BA5EE067BFDEEC76BB5EE4A
:100BA800C07BF1EE10FA16EE90BA08D5B8EEE66BF7
:100BB800B4EE476BF1EE10FA18BF0BF1FF3BBBF137
:100BC800160F34D8704B03EBCB0393ED007B9DEDF0
:100BD8000A6BB4EEC76BF1EE10FA01D50BF1FF3BCF
:100BE800002325E0139B01EB030A0AF23243202B72
:100BF80017DDC3F14003029A9C400AF2124322FA1D
:100C080003F3234307EE903AB8EE677B0AF1FF3A05
:100C18008DED047B0598DDE904230126A0F1F87326
:100C2800A5E7029AC3F1200302FA03F3EAE70123D6
:100C3800A1EB0A0A1093BAF10103079343BF0023FB
:100C4800CAF1010A07934FF0000ABBF1000F18DB45
:100C5800079BCDF834B05B4407930027089B092B0A
:100C680067D8052BC4BF043B0893089BA3F1020374
:100C7800CCBF00240124032B66D8DFE803F0091653
:100C880014580023AAEB0B0ACBF100070D93E5E7F4
:100C9800002309930C9B002B59DC012306939846EB
:100CA8001A460C920CE00123F3E7002309930C9BEE
:100CB8005B4403F1010806934346012BB8BF0123A7
:100CC800D9F8245000226A60042202F114009842E4
:100CD800696840D9484600F01DFCD9F824302860DE
:100CE8001B680493B8F10E0F00F2AD80002C00F0E1
:100CF800AA80BBF1000F40F3D480234A0BF00F0306
:100D080002EBC3034FEA2B1293ED007BD30640F1AD
:100D1800C6801E4B9DED0A5B93ED086B85EE066B56
:100D28008DED026B02F00F020323184939E001230D
:100D3800BCE701240023CDE908344FF0FF330693C4
:100D4800984600221223ACE701230993F5E70C9B90
:100D580006939846B4E7013169605200B5E700BFD1
:100D680061436F63A787D23FB3C8608B288AC63FA9
:100D7800FB799F501344D33F0000F07F333F0008B6
:100D88002A3F0008293F0008603F0008383F000854
:100D9800D50704D591ED006B013327EE067B521081
:100DA8000831002AF4D19DED026B86EE077B8DEDAC
:100DB800027B109A002A00F0A680B7EE006B9DED2A
:100DC800027BB4EEC67BF1EE10FA40F19C80B8F1DC
:100DD800000F00F09880069A002A30DDB2EE046B0E
:100DE80027EE067B8DED027B0BF1FF3101331446B4
:100DF8009DED026BB1EE0C5B07EE903AB8EEE77B27
:100E0800A7EE065B8DED025B0398DDE90223A0F1F6
:100E18005073002C7AD1B1EE047B36EE476B43EC6D
:100E2800172BB4EEC76BF1EE10FA00F34782B1EE60
:100E3800477BB4EEC76BF1EE10FA00F13D82DDE9B5
:100E48000A34CDE90234139B002BC0F21B81BBF19D
:100E58000E0F00F31781894B03EBCB0393ED006B67
:100E68000C9B002B80F2B880B8F1000F00F3B4801F
:100E780040F02182B1EE047B26EE076B9DED027BEC
:100E8800B4EEC76BF1EE10FA4446464680F2FB8199
:100E9800049D312305F8013B0BF1010BF7E1022317
:100EA80043E72ED0CBF10002744B02F00F0103EBA5
:100EB800C10393ED007B9DED0A6B26EE077B8DED5C
:100EC8000E7BDDE90E346E49CDE9023412110020A3
:100ED80002233AB900283FF46CAFDDE90E12CDE9E0
:100EE800021266E7D40709D59DED0E6B91ED007BE4
:100EF80026EE077B8DED0E7B013301205210083161
:100F0800E7E7022355E75946444671E743EC172BB8
:100F18005A4B03EBC40313ED024B049B1C44099B7F
:100F28004BB3B6EE003BB7EE002B049D83EE045B9B
:100F3800B2EE043B35EE477BFDEEC64B14EE903A1D
:100F4800B8EEE45B303336EE456BB4EEC76BF1EECA
:100F580010FA05F8013B38D432EE465BB4EEC75BB5
:100F6800F1EE10FA6FD4A5423FF469AF27EE037B88
:100F780026EE036BE0E7049A24EE077B2546B2EEE3
:100F8800043BFDEEC64B14EE903A303302F8013BB9
:100F9800A242B8EEE45B36EE456B1AD1B6EE005BC2
:100FA80037EE054BB4EEC46BF1EE10FA4BDC35EEC0
:100FB800477BB4EEC76BF1EE10FA7FF540AF15F83A
:100FC800013C302B05F1FF3201D08B462AE0154653
:100FD800F5E726EE036BD4E79DED027BB2EE044BFA
:100FE800049D87EE065BBDEEC55B15EE103A303307
:100FF80005F8013B049BEB1A9845B8EEC53BA3EEF8
:10100800467B33D137EE077BB4EEC67BF1EE10FAA0
:1010180018DCB4EE467BF1EE10FA03D115EE103A67
:10102800DB070FD40199484600F0A8FA0023119A6B
:101038002B700BF1010313601F9B002B3FF460AD75
:101048001D605DE5594615F8012C392A05F1FF3375
:1010580006D1049A9A4207D10498302201310270CD
:101068001A7801321A70B0E71D46ECE727EE047BC8
:10107800B5EE407BF1EE10FAB3D1D3E7603F00083C
:10108800383F0008099A002A00F0BD80089A012A12
:1010980000F3A480002E00F09D8003F233433C4609
:1010A8005546079A01211A4448469A44079200F087
:1010B80007FB0646002D0BDD079B002B08DDAB4226
:1010C800079AA8BF2B46AAEB030AED1AD31A07936F
:1010D800F7B1099B002B00F09A80002C11DD3146F6
:1010E8002246484600F086FB019A014606464846D5
:1010F80000F0EFFA01990A90484600F03FFA0A9B7F
:1011080001933A1B04D00199484600F073FB019003
:101118000121484600F0D4FA0D9B002B044678DDE7
:101128001A460146484600F065FB089B012B044619
:1011380072DD0027236904EB8303186900F070FA55
:10114800C0F12000079B184410F01F0000F08280B7
:10115800C0F12003042B7BDDC0F11C00079B034476
:10116800824405440793BAF1000F05DD5246019900
:10117800484600F08DFB0190079B002B05DD2146BA
:101188001A46484600F084FB0446109B002B63D0A7
:101198002146019800F0CFFB00285DDA00230A22DF
:1011A8000199484600F001FA099B01900BF1FF3BB9
:1011B800002B00F07381002331460A22484600F0D4
:1011C800F4F9069B002B064600F38180089B022B4E
:1011D8007DDD49E0129BC3F1360360E708F1FF3477
:1011E800A742BFBF0D9BE71BDB190D93B6BF274670
:1011F8003C1B0024B8F1000FB9BFAAEB0805002377
:10120800554643464DE73C465546099E52E73A4601
:1012180079E7089B012B17DC029BABB9039BC3F34F
:1012280013039BB9039B23F000473F0D3F052FB1E4
:10123800079B01330AF1010A079301270D9B002B35
:101248007FF478AF01207DE70027F7E7029FF5E7F5
:1012580089D018461C3081E7B8F1000F31DC089BB3
:10126800022B2EDDCDF81880069B63B92146052296
:10127800484600F09AF901460446019800F05BFBE5
:1012880000283FF705AE0C9B049D6FEA030B00276F
:101298002146484600F072F9002E3FF4C3AE2FB144
:1012A800B74203D03946484600F068F93146484607
:1012B80000F064F9B6E600242646E4E78B462646A5
:1012C800E6E5099BCDF81880002B00F0EE80002D94
:1012D80005DD31462A46484600F0DAFA0646002F70
:1012E80054D07168484600F015F932690232054653
:1012F800920006F10C010C3000F0FEF8012229469C
:10130800484600F0C5FA049B049A03F10108069BBD
:1013180013440C93029B03F00103374609930646D6
:1013280008F1FF33214601980293FFF718FB39466D
:10133800069000F1300A019800F0FDFA3246079055
:101348002146484600F011FBC268054602BB01462B
:10135800019800F0F0FA0246294648460A9200F041
:101368000DF9089B0A9A43EA0201099B0B4345467B
:1013780010D1BAF1390F29D0079B002B02DD069B4B
:1013880003F1310A029B83F800A081E73046BAE7EF
:101398000122E1E7079B002B04DB08990B4309991D
:1013A8000B431ED1002AEDDD01220199484600F0C9
:1013B8006FFA2146019000F0BEFA002803DCE1D163
:1013C8001AF0010FDED0BAF1390FD8D1029A3923B9
:1013D800137015F8013C392B05F1FF324AD001335F
:1013E80007E0002A07DDBAF1390FEFD0029A0AF1B7
:1013F800010313704CE70C9B08F801AC984521D009
:1014080000230A220199484600F0CFF8B74201901C
:101418004FF000034FF00A023946484606D100F063
:10142800C4F80746064608F1010879E700F0BDF858
:101438003146074600230A22484600F0B6F8064619
:10144800F1E7002701220199484600F021FA2146D8
:10145800019000F070FA0028BBDC02D11AF0010FED
:10146800B7D115F8013C302B05F1FF327FF410AFEE
:101478001546F6E7049B934204D10BF1010B312387
:10148800049AB6E71546A4E7134BFFF755BB1F9B15
:10149800002B7FF430AB114BFFF74EBB069B002BA4
:1014A80003DC089B022B3FF7DFAE049D0198214621
:1014B800FFF755FA00F1300A049B05F801ABEA1A68
:1014C800069B9342BDDD00230A220199484600F09D
:1014D8006CF80190EAE700BF283F00082A3F00089F
:1014E8000048704754010024024B0146186800F078
:1014F800F5BA00BF000000240A44914200F1FF330E
:1015080000D1704710B511F8014B03F8014F914213
:10151800F9D110BD70B5456A04460E463DB9102094
:10152800FFF7E2FFC0E9015560620560C560656AC2
:10153800EB6883B1636ADB6853F82600B8B9012108
:1015480001FA06F56A1D9200204600F0B9FA60B16A
:10155800C0E901650EE021220421204600F0B0FA1E
:10156800636AE860DB68002BE4D1002070BD026884
:1015780043F826200023C0E90333F7E770B5446A2F
:1015880006460D463CB91020FFF7AEFFC0E90144FE
:1015980070620460C4603DB1736A6A68DB6853F8BE
:1015A8002210296043F8225070BD2DE9F0410D69E1
:1015B8001F4606460C4601F1140C0023DCF8000017
:1015C80081B202FB01710F0C000C02FB007089B2A2
:1015D800013301EB00419D424FEA10474CF8041BD0
:1015E800ECDCD7B1A368AB4212DC6168304601314C
:1015F800FFF790FF2269023204F10C018046920045
:101608000C30FFF779FF21463046FFF7B7FF444615
:1016180004EB850301355F6125612046BDE8F08153
:10162800020C12040346CAB90304102013F07F4FBA
:1016380004BF1B02083013F0704F04BF1B010430B5
:1016480013F0404F04BF9B000230002B05DB13F062
:10165800804F00F1010008BF202070470020E5E717
:10166800036813F0070201460BD0DA0724D4980761
:1016780049BF5B089B0801200B605CBF0B60022020
:10168800704798B2B0B91B0C102013F0FF0F04BFBD
:101698001B0A08301A0704BF1B0904309A0704BF45
:1016A8009B080230DA0703D45B0800F1010005D07B
:1016B8000B6070471046E8E700207047202070470D
:1016C80010B50C460121FFF725FF01224461026194
:1016D80010BD2DE9F74F90460A69D8F810309A42A4
:1016E800B8BF0B460C46BCBF444698462769D8F895
:1016F8001090A368616807EB0906B342B8BF0131CF
:10170800FFF708FF00F1140505EB860E2B460022B3
:10171800734516D304F1140308F1140203EB870789
:1017280002EB89030093009B019293420CD8002E90
:1017380003DD5EF8043D002B59D0066103B0BDE817
:10174800F08F43F8042BE3E7B2F800A0BAF1000FDA
:1017580023D004F11409AC464FF0000859F8041BD3
:10176800DCF800B08BB21FFA8BFB0AFB03B34FEA1D
:10177800114BDCF8001043444FEA11480AFB0B8177
:1017880001EB13419BB243EA01434F454FEA11482D
:101798004CF8043BE2D8CCF80080019BB3F80290E7
:1017A8000432B9F1000F20D02B6804F11408AC46BC
:1017B8004FF0000AB8F80010BCF802B009FB01B1FC
:1017C8008A449BB243EA0A434CF8043B58F8043B6A
:1017D800BCF800101B0C09FB031303EB1A43474525
:1017E8004FEA134AE6D8CCF8003004359BE7013EAF
:1017F8009DE700002DE9F843154612F0030206465E
:101808000F4607D0013A214C002354F82220FFF755
:10181800CCFE0746AD1035D0746A3CB91020FFF7EE
:1018280063FEC0E9014470620460C460D6F8248095
:10183800D8F808404CB940F271213046FFF740FF14
:101848000023C8F80800044603604FF00008EB07BF
:101858000AD5394622463046FFF73BFF39468146CE
:101868003046FFF78BFE4F466D100BD0206838B915
:10187800224621463046FFF72CFF2060C0F8008042
:101888000446E4E73846BDE8F88300BF284000086E
:101898002DE9F0470C464FEA621A236949680AEBBA
:1018A8000309A3680746164609F10105AB4233DB75
:1018B8003846FFF72FFE0023804600F1140100F19F
:1018C8001002184653452ADB20692AEAEA7A04F10D
:1018D800140316F01F0201EB8A0103EB800C22D0DF
:1018E800C2F1200E00201E689640304341F8040BD8
:1018F80053F8040B9C4520FA0EF0F4D8086008B1A0
:1019080009F10205013D3846C8F810502146FFF795
:1019180035FE4046BDE8F08701315B00C6E742F876
:10192800040F0133CEE7043953F8042B41F8042F90
:101938009C45F9D8E6E703690A699B1A30B50CD1CA
:101948009200143014318418114454F8045D51F88D
:10195800042D954203D005D30123184630BDA0427B
:10196800F3D3FAE74FF0FF33F7E72DE9F0470D46D9
:101978000746114628461446FFF7DDFF061E08D124
:1019880031463846FFF7C6FD0123C0E90436BDE8F5
:10199800F087A4BF23462C4638466168A6BF1D467B
:1019A80000260126FFF7B6FD2B69C660266905F1FA
:1019B800140904F1140202EB860709EB830800F10D
:1019C80014054FF0000E52F804AB59F8044B1EFAF8
:1019D8008AF1A3B2C91A230CC3EB1A4303EB2143C0
:1019E80089B24FEA234EC84541EA0343944645F875
:1019F800043BE8D8BC4504D355F8043D83B10661DF
:101A0800C5E75CF8041B1EFA81F31A1402EB1142B5
:101A18009BB243EA02434FEA224E45F8043BE9E70A
:101A2800013EE9E72DE9F7430E46012159EC108BF9
:101A38001546FFF76FFDC9F30A540746C9F31303A8
:101A48002CBB0193B8F1000326D068460093FFF73A
:101A580007FE0099F0B1019AC0F1200302FA03F3DE
:101A68000B43C2407B610192019BBB61002B14BFF9
:101A7800022101213961C4B1A4F233440444346021
:101A8800C0F135002860384603B0BDE8F08343F460
:101A98008013D6E77961E7E701A8FFF7E1FD019B2D
:101AA8007B61012139612030E5E707EB8103A0F272
:101AB800324030601869FFF7B3FDC0EB4110E1E731
:101AC80038B502FB01F4214600F008F8054618B1C4
:101AD80022460021FEF728FC284638BDF8B5CD1C63
:101AE80025F0030508350C2D38BF0C25002D0646BA
:101AF80001DBA94203D90C2333600020F8BD00F0B4
:101B080069F821490A6814469CB9204F3B6823B9F3
:101B18002146304600F03CF838602946304600F04F
:101B280037F8431C23D10C233360304600F058F8B3
:101B3800E3E723685B1B17D40B2B03D923601C44F2
:101B4800256004E06368A2420CBF0B605360304616
:101B580000F046F804F10B00231D20F00700C21A1C
:101B6800CCD01B1AA350C9E722466468CCE7C41C32
:101B780024F00304A042E3D0211A304600F008F80C
:101B88000130DDD1CFE700BF140200241802002481
:101B980038B5064C002305460846236000F094F942
:101BA800431C02D1236803B12B6038BD2C020024EA
:101BB80082B001B901A942B14BB113780B60127818
:101BC800101C18BF012002B070471046FBE76FF0E9
:101BD8000100F8E7014800F016B800BF34020024FD
:101BE800014800F011B800BF3402002449B1FF2AAF
:101BF80085BF8A2303600A704FF0FF3098BF012029
:101C08007047084670477047704772B6FEE7000095
:101C180000B59DB04C22002109A8FEF785FB2022C3
:101C2800002101A8FEF780FB022000F0E3FB00235F
:101C38000093254BDA6A22F00102DA62DB6A03F0CC
:101C480001030093214B9A6942F440429A619B69CF
:101C580003F440430093009B1C4B9B6913F4005F03
:101C6800FAD0012309934FF480330A930223129385
:101C780013931493C822159216930422179218935B
:101C88000823199300231A931B9309A800F0DCFB7F
:101C9800B0B93F230193032302930023039308233E
:101CA80004934023059306934FF4806207920893A8
:101CB800022101A801F018F820B91DB05DF804FB55
:101CC800FFF7A3FFFFF7A1FF0004005800480258E0
:101CD80008B500F0D5F9FFF79BFF00F01BF800F0FE
:101CE8006DF802F0B1F82021094800F079FB084CA2
:101CF8004021204600F074FB2021204600F070FBB4
:101D08001021204600F06CFBFA2000F0F9F9EEE70C
:101D180000040258F0B589B0002403940494059493
:101D280006940794224BD3F8E02042F08002C3F8CF
:101D3800E020D3F8E02002F080020092009AD3F865
:101D4800E02042F48072C3F8E020D3F8E02002F4E7
:101D580080720192019AD3F8E02042F00202C3F89F
:101D6800E020D3F8E03003F002030293029B114F06
:101D780022467021384600F02DFB0F4D22461021D7
:101D8800284600F027FB7023039301260496059448
:101D9800069403A9384600F027FA10230393049603
:101DA8000594069403A9284600F01EFA09B0F0BD70
:101DB80000440258000402580020025808B514488C
:101DC800144B03604FF480034360002383600722B1
:101DD800C260036143614FF0806282614FF0A042AC
:101DE800C261036243628362C3624FF0804242630E
:101DF8008363C363036443648364C36403654365A3
:101E0800836501F059FF00B908BDFFF7FEFEFBE747
:101E18003C0200240038004010B5B8B00446002148
:101E280033913491359136913791C02202A8FEF74B
:101E38007BFA22681B4B9A4201D038B010BD4FF490
:101E480080520023CDE9022302A801F0A3F930BB98
:101E5800154BD3F8E82042F48042C3F8E820D3F8C1
:101E6800E82002F480420092009AD3F8E02042F47D
:101E78008072C3F8E020D3F8E03003F48073019354
:101E8800019B0E2333930223349300233593369317
:101E98000523379333A9054800F0A6F9CDE7FFF7E6
:101EA800B4FED5E70038004000440258002002582C
:101EB800FEE7FEE7FEE7FEE7FEE77047704770477C
:101EC80008B500F00BF908BD10B503460C4A0D49DA
:101ED8000D48006840B10C4800680344521A934208
:101EE80006D8094A136010BD0748084C0460F2E799
:101EF80001F0FAFF0C2303604FF0FF30F3E700BF57
:101F080000000824000400001C02002430070024FC
:101F1800274AD2F8883043F47003C2F88830254B3A
:101F28001B6803F00F03062B06D8224A136823F018
:101F38000F0343F0070313601F4B1A6842F00102B6
:101F48001A6000221A6119681C4A0A401A60194B63
:101F58001B6813F0080F06D0164A136823F00F0306
:101F680043F007031360144B00229A61DA611A6286
:101F7800134999621349D962134919635A639963DA
:101F8800DA6319645A64196821F4802119601A66A1
:101F98000E4B1A680E4B1340B3F1005F02D20D4B83
:101FA80001221A600C4B43F2D2021A60704700BF3C
:101FB80000ED00E000200052004402587FEDF6EAF0
:101FC800000202020000FF01800201010010005C13
:101FD8000000FFFF0881005100400052DFF834D0B4
:101FE800FFF796FF0C480D490D4A002302E0D4582C
:101FF800C4500433C4188C42F9D30A4A0A4C00234B
:1020080001E013600432A242FBD3FEF769F9FFF73F
:102018005FFE70470000082400000024F801002437
:1020280058410008F801002430070024FEE77047F3
:10203800104B1B780BB90120704710B504464FF4BC
:102048007A70B0FBF3F30C4A1068B0FBF3F000F0C1
:10205800B5F868B90F2C01D901200AE00022214601
:102068004FF0FF3000F078F8044B1C60002000E0CF
:10207800012010BDD8010024D0010024DC01002477
:1020880010B5032000F056F800F038FD0F498B69B1
:10209800C3F303230E4AD35C03F01F03D8408B69B4
:1020A80003F00F03D35C03F01F0320FA03F3094A7C
:1020B8001360094B18600F20FFF7BAFF10B1012415
:1020C800204610BD0446FFF7B2FFF9E70044025866
:1020D80040410008D4010024D0010024034B1B78A0
:1020E800034A11680B441360704700BFD8010024ED
:1020F800C4020024014B1868704700BFC4020024C2
:1021080038B50446FFF7F6FF0546B4F1FF3F02D0A5
:10211800044B1B781C44FFF7EDFF401BA042FAD389
:1021280038BD00BFD8010024014B1868000C704767
:102138000010005C0649CB6823F4E0631B041B0C09
:10214800000200F4E0600343024A1A43CA60704781
:1021580000ED00E00000FA0530B4154BDB68C3F36E
:102168000223C3F10704042C28BF04241D1D062DD7
:1021780001D9033B00E000234FF0FF3505FA04F4D2
:1021880021EA0401994005FA03F322EA03031943FB
:10219800002805DB0901C9B2064B195430BC704749
:1021A80000F00F000901C9B2034B1954F6E700BF4C
:1021B80000ED00E000E400E014ED00E00138B0F1CB
:1021C800807F0AD2064B5860064AF02182F8231015
:1021D8000020986007221A6070470120704700BFEE
:1021E80010E000E000ED00E0F0B482B000235FE012
:1021F80086685F000325BD4026EA0506CD68BD4018
:1022080035438560466826EA04064D68C5F3001420
:102218009C40344344605AE0DD08083550F8257086
:1022280003F00704A6000F24B44027EA04070C694A
:10223800B4403C4340F825405DE0092400E0002418
:10224800B4403C4302355F4E46F825404FF0B04459
:102258002568D44304EA05064F6817F4801F01D0A7
:1022680042EA05064FF0B0452E606E6804EA06059E
:102278004F6817F4001F01D042EA06054FF0B04638
:102288007560514D6D6804EA05064F6817F4003F04
:1022980001D042EA05064C4D6E602D682C404E6810
:1022A80016F4803F01D042EA0504474A146001331E
:1022B8000A6832FA03F400F0828001249C4022402C
:1022C800F5D04D6805F00305013D012D90D94C6806
:1022D80004F00304032C09D0C5685E000324B4404D
:1022E80025EA04058C68B4402C43C4604C6804F0AB
:1022F8000304022C90D005685E000324B44025EA4C
:1023080004054C6804F00304B4402C4304604C6892
:1023180014F4403FCBD02D4CD4F8F45045F00205CE
:10232800C4F8F450D4F8F44004F002040194019C79
:102338009D08AE1C234C54F8267003F00304A60035
:102348000F24B44027EA0407214CA0423FF477AF9A
:1023580004F58064A04222D004F58064A04220D015
:1023680004F58064A0421ED004F58064A0421CD00D
:1023780004F58064A0421AD004F58064A04218D005
:1023880004F58064A04216D004F58064A04214D0FD
:1023980004F58064A0423FF450AF0A2450E70124BA
:1023A8004EE702244CE703244AE7042448E70524BF
:1023B80046E7062444E7072442E7082440E702B03A
:1023C800F0BC7047000400588000005800440258D0
:1023D800000002580AB181617047090481617047A1
:1023E800436901EA030221EA030141EA02418161EA
:1023F80070470000134BDB6813F0040F07D1114B33
:10240800DB6803F0070383421AD00120704710B538
:102418000C4AD36823F007031843D060FFF76AFE1D
:102428000446084B5B6813F4005F07D1FFF762FEB0
:10243800001BB0F57A7FF4D9012000E0002010BD20
:102448000020704700480258002800F0398338B54A
:102458000446036813F0010F25D0A74A136903F057
:102468003803926A102B15D0182B0FD06368B3F578
:10247800803F3FD0002B53D19F4B1A6822F4803203
:102488001A601A6822F480221A6038E002F0030207
:10249800022AEBD1984B1B6813F4003F03D0636802
:1024A800002B00F00F83236813F0020F00F0A180C7
:1024B800914A1369926A13F038035AD0182B55D0F1
:1024C800E368002B00F0DE808B490A6822F01902CD
:1024D80013430B60FFF70EFE0546874B1B6813F08E
:1024E800040F40F0AD80FFF705FE401B0228F4D929
:1024F8000320EEE2804A136843F480331360636874
:102508002BB3FFF7F7FD05467B4B1B6813F4003F21
:10251800C9D1FFF7EFFD401B6428F5D90320D8E2A5
:10252800B3F5A02F09D0744B1A6822F480321A60D0
:102538001A6822F480221A60E1E76F4B1A6842F4A5
:1025480080221A601A6842F480321A60D7E7FFF7CF
:10255800D1FD0546684B1B6813F4003FA3D0FFF775
:10256800C9FD401B6428F5D90320B2E212F0030F1D
:10257800A6D1614B1B6813F0040F03D0E368002B4E
:1025880000F0A2825C4A136823F01903E1680B4348
:102598001360FFF7AFFD0546574B1B6813F0040F98
:1025A80006D1FFF7A7FD401B0228F5D9032090E2CA
:1025B800FFF7BAFD41F20303984212D82269402A74
:1025C80007D04D494B6823F47C3343EA02334B6010
:1025D8000FE0494A536823F47C3343F400335360D3
:1025E80007E0454A536823F0FE43216943EA016343
:1025F8005360236813F0100F00F088803E4A136977
:1026080003F03803926A082B54D0182B4ED0E36994
:10261800002B00F0B880384A136843F08003136039
:10262800FFF768FD0546344B1B6813F4807F40F0C4
:102638008880FFF75FFD401B0228F4D9032048E299
:10264800FFF772FD41F20303984212D82269402A2B
:1026580007D029494B6823F47C3343EA02334B60A3
:10266800C7E7254A536823F47C3343F400335360A7
:10267800BFE7214A536823F0FE43216943EA016317
:102688005360B6E71C4A136823F001031360FFF791
:1026980031FD0546184B1B6813F0040FA9D0FFF74E
:1026A80029FD401B0228F5D9032012E202F003029B
:1026B800012AACD1104B1B6813F4807F03D0E36967
:1026C800802B40F00382FFF72FFD41F2030398426D
:1026D80014D8226A202A07D007494B6823F0F84308
:1026E80043EA82634B6011E0034A536823F0F843DE
:1026F80043F08043536009E0004402589A4AD36883
:1027080023F07C53216A43EA0163D360236813F002
:10271800080F60D06369002B49D0934A536F43F088
:1027280001035367FFF7E6FC05468F4B5B6F13F019
:10273800020F50D1FFF7DEFC401B0228F5D9032019
:10274800C7E1FFF7F1FC41F20303984212D8226A6D
:10275800202A07D084494B6823F0F84343EA826370
:102768004B60D3E7804A536823F0F84343F0804333
:102778005360CBE77C4AD36823F07C53216A43EA51
:102788000163D360C2E7784A136823F080031360BB
:10279800FFF7B0FC0546744B1B6813F4807FB5D077
:1027A800FFF7A8FC401B0228F5D9032091E16E4AE7
:1027B800536F23F001035367FFF79CFC05466A4BF0
:1027C8005B6F13F0020F06D0FFF794FC401B022842
:1027D800F5D903207DE1236813F0200F29D0A369E0
:1027E8009BB1614A136843F480531360FFF782FC7E
:1027F80005465D4B1B6813F4005F1AD1FFF77AFC9E
:10280800401B0228F5D9032063E1574A136823F4D3
:1028180080531360FFF76EFC0546534B1B6813F497
:10282800005F06D0FFF766FC401B0228F5D903209D
:102838004FE1236813F0040F21D1636A002B00F0E5
:102848004781494A126902F03802182A00F0EE80DE
:10285800022B75D0444A136823F080731360FFF786
:1028680049FC0446404B1B6813F0007F00F0DC80F5
:10287800FFF740FC001B0228F4D9032029E13B4A5A
:10288800136843F480731360FFF734FC0546374B35
:102898001B6813F4807F06D1FFF72CFC401B6428CB
:1028A800F5D9032015E1A368012B0AD00BBB2E4BE9
:1028B8001A6F22F001021A671A6F22F004021A67CF
:1028C80004E0294A136F43F001031367A36833B385
:1028D800FFF710FC0546244B1B6F13F0020FACD119
:1028E800FFF708FC401B41F288339842F3D90320D4
:1028F800EFE0052B09D01C4B1A6F22F001021A6772
:102908001A6F22F004021A67E0E7174B1A6F42F0B9
:1029180004021A671A6F42F001021A67D6E7FFF736
:10292800E9FB0546104B1B6F13F0020F85D0FFF72C
:10293800E1FB401B41F288339842F3D90320C8E0F9
:10294800094A136823F080731360FFF7D3FB054629
:10295800054B1B6813F0007F0AD0FFF7CBFB401B29
:102968000228F5D90320B4E0004402580048025870
:102978005F4B996A5F4A0A40A16AE06A41EA00111E
:102988000A439A62226B013AC2F30802616B013969
:10299800490289B20A43A16B0139090401F4FE0115
:1029A8000A43E16B0139090601F0FE410A431A6343
:1029B800DA6A22F00102DA62596B4F4A0A40A16CC6
:1029C80042EAC1025A63DA6A22F00C02216C0A4315
:1029D800DA62DA6A22F00202616C0A43DA62DA6ABF
:1029E80042F48032DA62DA6A42F40032DA62DA6A8F
:1029F80042F48022DA62DA6A42F00102DA621A6884
:102A080042F080721A60FFF775FB0446384B1B686A
:102A180013F0007F06D1FFF76DFB001B0228F5D9E4
:102A2800032056E0002054E0002052E0304A916A2A
:102A3800106B012B4ED001F00303A26A93424BD1D5
:102A4800C1F30511E36A994248D1C0F30802236B28
:102A5800013B9A4244D1C0F34622636B013B9A4240
:102A680040D1C0F30642A36B013B9A423CD1C0F36C
:102A78000660E36B013B984238D11D4B5B6BC3F397
:102A8800CC03A26C9A4201D1002022E0184AD36AF2
:102A980023F00103D362FFF72DFB0546FFF72AFB5E
:102AA800A842FBD0124A516B134B0B40A16C43EA6E
:102AB800C1035363D36A43F00103D362002008E0E3
:102AC80001207047012004E0012002E0012000E01D
:102AD800002038BD0120FCE70120FAE70120F8E7D3
:102AE8000120F6E70120F4E70120F2E70120F0E7F2
:102AF800004402580CFCFFFF0700FFFF724B1B69E4
:102B080003F03803102B00F0DB80182B10D00BB12A
:102B18006E4870476C4B1B6813F0200F00F0D28092
:102B2800694B1868C0F3C100694B23FA00F070477D
:102B3800654A916A01F00301906AC0F30510D36AEF
:102B480003F00103526BC2F3CC0203FB02F307EE5E
:102B5800903AF8EE677A002800F0B580012966D02F
:102B6800F9B1022900F08F8007EE100AF8EE476AE3
:102B78009FED586A86EE267A534B1B6BC3F3080306
:102B880006EE903AF8EE666A9FED536A67EE867A2B
:102B980076EEA77AF7EE006A77EEA67A27EE277A1E
:102BA80061E0494B1B6813F0200F23D046490A689F
:102BB800C2F3C102464BD34007EE103AF8EE476A1B
:102BC80007EE100AB8EE476A86EE867A0B6BC3F3F7
:102BD800080306EE903AF8EE666A9FED3F6A67EEE4
:102BE800867A76EEA77AF7EE006A77EEA67A27EE6F
:102BF800277A38E007EE100AF8EE476A9FED376A41
:102C080086EE267A304B1B6BC3F3080306EE903A28
:102C1800F8EE666A9FED306A67EE867A76EEA77AF6
:102C2800F7EE006A77EEA67A27EE277A1BE007EE22
:102C3800100AF8EE476A9FED276A86EE267A224B3D
:102C48001B6BC3F3080306EE903AF8EE666A9FED35
:102C5800226A67EE867A76EEA77AF7EE006A77EE52
:102C6800A67A27EE277A184B1B6BC3F3462301334A
:102C780007EE903AF8EE677AC7EE276AFCEEE67A36
:102C880017EE900A704707EE100AF8EE476A9FEDB4
:102C9800146A86EE267A0C4B1B6BC3F3080306EE08
:102CA800903AF8EE666A9FED0C6A67EE867A76EEE1
:102CB800A77AF7EE006A77EEA67A27EE277AD2E7A8
:102CC80008487047024870470044025800093D0010
:102CD8000090D0030024744A000000390024744C8A
:102CE8000024F44A00127A00002800F033810346D9
:102CF8009C4A126802F00F028A420BD29948026875
:102D080022F00F020A430260026802F00F028A42B0
:102D180040F0228170B51A6812F0040F0CD01869BF
:102D2800914A926902F07002904205D98E4CA269CC
:102D380022F070021043A0611A6812F0080F0CD03C
:102D48005869894AD26902F07002904205D9864CC6
:102D5800E26922F070021043E0611A6812F0100F65
:102D68000CD09869804AD26902F4E062904205D991
:102D78007D4CE26922F4E0621043E0611A6812F0C7
:102D8800200F0CD0D869784A126A02F0700290427B
:102D980005D9754C226A22F07002104320621A6825
:102DA80012F0020F0CD0D8686F4A926902F00F0235
:102DB800904205D96C4CA26922F00F021043A06121
:102DC8001C460D461B6813F0010F41D0664A9369F3
:102DD80023F47063A1680B4393616368022B0AD0E4
:102DE800032B27D0012B2CD05F4A126812F0040F56
:102DF80006D10120ADE0126812F4003F00F0AE8069
:102E080059490A6922F0070213430B61FFF772F967
:102E18000646554B1B6903F038036268B3EBC20FD3
:102E280016D0FFF767F9801B41F288339842F0D932
:102E380003208EE04C4A126812F0007FE0D1012096
:102E480087E0494A126812F4807FD9D1012080E0D6
:102E5800236813F0020F0CD0E268434B9B6903F020
:102E68000F039A4205D240498B6923F00F031A4396
:102E78008A613C4B1B6803F00F03AB420AD9394AFD
:102E8800136823F00F032B431360136803F00F0339
:102E9800AB4265D1236813F0040F0CD02269324B82
:102EA8009B6903F070039A4205D22F498B6923F07E
:102EB80070031A438A61236813F0080F0CD0626903
:102EC800294BDB6903F070039A4205D22649CB6986
:102ED80023F070031A43CA61236813F0100F0CD053
:102EE800A269214BDB6903F4E0639A4205D21E49CB
:102EF800CB6923F4E0631A43CA61236813F0200FF7
:102F08000CD0E269184B1B6A03F070039A4205D291
:102F180015490B6A23F070031A430A62FFF7EEFDA6
:102F280011498B69C3F30323104AD35C03F01F03D1
:102F3800D8408B6903F00F03D35C03F01F0320FA1A
:102F480003F30B4A13600B4B18600B4B1868FFF721
:102F58006FF870BD01207047012070470120F8E725
:102F68000120F6E7002000520044025840410008C2
:102F7800D4010024D0010024DC010024404B9B6ACA
:102F880003F00303032B79D070B50E4605463C4A7F
:102F9800136823F080631360FFF7ACF80446384BDE
:102FA8001B6813F0006F06D0FFF7A4F8001B022877
:102FB800F5D9032070BD324B9A6A22F47C32296815
:102FC80042EA01329A626A68013AC2F30802A968C1
:102FD8000139490289B20A43E9680139090401F44F
:102FE800FE010A4329690139090601F0FE410A4335
:102FF8009A63DA6A22F0C00269690A43DA62DA6A15
:1030080022F02002A9690A43DA62DA6A22F0100281
:10301800DA62D96B1B4A0A40E96942EAC102DA63FB
:10302800DA6A42F01002DA62C6B91A46DB6A43F479
:103038000023D362124A136843F080631360FFF7DA
:1030480059F804460E4B1B6813F0006F14D1FFF7B4
:1030580051F8001B0228F5D90320ABE7012E05D053
:10306800074AD36A43F40013D362E3E7044AD36AF6
:1030780043F48013D362DDE700209BE7012070470B
:10308800004402580700FFFF404B9B6A03F003030C
:10309800032B79D070B50E4605463C4A136823F0D9
:1030A80080531360FFF726F80446384B1B6813F06B
:1030B800005F06D0FFF71EF8001B0228F5D9032091
:1030C80070BD324B9A6A22F07C72296842EA01523A
:1030D8009A626A68013AC2F30802A968013949028A
:1030E80089B20A43E9680139090401F4FE010A4377
:1030F80029690139090601F0FE410A431A64DA6AAE
:1031080022F4406269690A43DA62DA6A22F40072D8
:10311800A9690A43DA62DA6A22F48072DA62596CBF
:103128001B4A0A40E96942EAC1025A64DA6A42F46F
:103138008072DA62C6B91A46DB6A43F48003D36246
:10314800124A136843F080531360FEF7D3FF044616
:103158000E4B1B6813F0005F14D1FEF7CBFF001B6A
:103168000228F5D90320ABE7012E05D0074AD36A18
:1031780043F08073D362E3E7044AD36A43F400035D
:10318800D362DDE700209BE7012070470044025826
:103198000700FFFFF8B50446016801F0006200234C
:1031A800134331D0836EB3F5801F1ED00FD9B3F50A
:1031B800001F23D0B3F5401F14D10025A34A136D77
:1031C80023F44013A16E0B43136500261EE033B9A8
:1031D8009E4AD36A43F40033D3620025EEE7012602
:1031E800354613E00126354610E002210830FFF786
:1031F800C5FE0546002DE1D02E4607E00221283005
:10320800FFF742FF0546F5E700263546216801F439
:1032180080720023134314D0A36D042B34D8DFE845
:1032280003F003252C080800884AD36A43F40033C6
:10323800D36265BB854A136D23F00703A16D0B4369
:103248001365216801F40072002313432BD0E36D4A
:10325800802B4ED020D8002B3DD0402B19D10021F7
:1032680004F10800FFF78AFE054639E0002104F161
:103278000800FFF783FE0546DBE7002104F128007C
:10328800FFF702FF0546D4E701263546D9E72E4663
:10329800D7E70126354606E0C02B21D0B3F5807F5D
:1032A8001ED001263546216801F4806200231343AD
:1032B80033D0D4F8A830B3F5800F55D025D8002BDB
:1032C80043D0B3F5001F1DD1002104F10800FFF71A
:1032D80055FE05463EE05D4AD36A43F40033D362A7
:1032E80075B95A4A136D23F4E073E16D0B43136506
:1032F800D9E7002104F12800FFF7C6FE0546EFE7ED
:103308002E46D0E70126354607E0B3F5C00F21D099
:10331800B3F5000F1ED001263546216801F400627E
:103328000023134334D0D4F8AC30B3F1007F4FD02E
:1033380026D8002B3DD0B3F1807F1ED1002104F1A7
:103348000800FFF71BFE054638E0404AD36A43F4FD
:103358000033D3627DB93D4A936D23F46003D4F8FA
:10336800A8100B439365D8E7002104F12800FFF764
:103378008BFE0546EEE72E46CFE70126354607E0E9
:10338800B3F1407F1AD0B3F1806F17D001263546CC
:10339800216801F000720023134325D0E36C102B41
:1033A80039D01ED9202B44D0302B39D001263546B0
:1033B8001AE0264AD36A43F40033D3627DB9234A1C
:1033C800936D23F0E063D4F8AC100B439365DFE70B
:1033D800002104F12800FFF757FE0546EEE72E46C8
:1033E800D6E7EBB101263546216801F48052002367
:1033F800134335D0236EB3F5005F5ED028D8002B79
:103408004DD0B3F5805F1DD1002104F10800FFF70E
:10341800B5FD054648E00D4AD36A43F40033D3624C
:1034280075B90A4AD36C23F03003E16C0B43D364BB
:10343800DAE7022104F10800FFF7A0FD0546EFE7EF
:103448002E46D1E7012635460AE000BF004402585F
:10345800B3F5405F28D0B3F5804F25D00126354617
:10346800216801F40052002313433DD0636EB3F585
:10347800003F5AD02DD843B1B3F5803F26D1012162
:1034880004F10800FFF77AFD0546002D54D1944A4F
:10349800136D23F4E023616E0B43136524E0904A17
:1034A800D36A43F40033D36275B98D4A136D23F49C
:1034B800E043216E0B431365D2E7002104F1280095
:1034C800FFF7E2FD0546EFE72E46C9E70126354638
:1034D8000AE0B3F5802FD8D0B3F5A02FD5D0B3F537
:1034E800403FD2D001263546216801F480420023AE
:1034F800134331D0D4F8B030B3F1005F49D020D8AD
:1035080043B1B3F1805F19D1012104F10800FFF73D
:1035180035FD0546002D43D1714A936D23F0E043F4
:10352800D4F8B0100B43936516E0012104F128008C
:10353800FFF7AAFD0546A8E72E46D5E7012635463A
:103548000AE0B3F1804FE5D0B3F1A04FE2D0B3F178
:10355800405FDFD001263546216801F40042002390
:10356800134309D0236FB3F1805F1BD0B3F1005F21
:1035780026D0E3B101263546216801F08072002388
:1035880013433FD0A36C032B38D8DFE803F027227E
:103598003027012104F12800FFF776FD0546B9E739
:1035A8002E46D9E74E4AD36A43F40033D36275B93D
:1035B8004B4A136D23F04053216F0B431365DBE730
:1035C800012104F10800FFF7D9FC0546EFE72E4674
:1035D800D2E7434AD36A43F40033D3628DB9404AF1
:1035E800D36C23F00303A16C0B43D3640AE00221DC
:1035F80004F10800FFF7C2FC0546EFE7012635464F
:1036080000E02E46216801F480020023134321D1F3
:10361800216801F001020023134300F09E80E36F4C
:10362800282B00F29680DFE803F084949494949415
:1036380094947E949494949494948D94949494945F
:103648009494849494949494949484949494949452
:1036580094948400234A136843F480731360FEF73C
:1036680049FD07461F4B1B6813F4807F05D1FEF701
:1036780041FDC01B6428F5D90325002D4FD1184BF7
:103688001B6FD4F8B420534013F4407F0CD0144B74
:103698001A6F22F44072196F41F480311967196F5B
:1036A80021F4803119671A67D4F8B430B3F5807FF4
:1036B8001AD0002D35D1D4F8B43003F44072B2F5E5
:1036C800407F22D0064A136923F47C5313610449CE
:1036D8000B6FD4F8B420C2F30B0213430B6797E7C0
:1036E8000044025800480258FEF704FD07468F4B75
:1036F8001B6F13F0020FDCD1FEF7FCFCC01B41F27C
:1037080088339842F3D90325D3E78848026922F41D
:103718007C52874901EA131313430361D7E72E4606
:1037280076E72E4674E7012104F10800FFF726FC2E
:1037380005468DB97D4A536D23F03803E16F0B437D
:1037480053650AE0012104F12800FFF79DFC0546B6
:10375800EFE70126354600E02E46216801F0020217
:103768000023134321D0A36F052B1AD8DFE803F0F9
:10377800090312090909012104F10800FFF7FEFBFA
:1037880005468DB9694A536D23F00703A16F0B43B2
:1037980053650AE0012104F12800FFF775FC05468E
:1037A800EFE70126354600E02E46216801F00402C5
:1037B8000023134323D0D4F89430052B1BD8DFE81B
:1037C80003F0090313090909012104F10800FFF7AF
:1037D800D5FB054695B9554A936D23F00703D4F8F0
:1037E80094100B4393650AE0012104F12800FFF7C8
:1037F8004BFC0546EEE70126354600E02E462168DB
:1038080001F020020023134328D0D4F89030B3F1FC
:10381800005F44D017D843B1B3F1805F10D10021C5
:1038280004F10800FFF7AAFB0546002D3ED13F4AE8
:10383800536D23F0E043D4F890100B4353650DE02B
:10384800012635460AE0B3F1804FEED0B3F1A04F20
:10385800EBD0B3F1405FE8D001263546216801F08E
:1038680040020023134331D0D4F89C30B3F5006FE5
:103878004FD020D843B1B3F5806F19D1002104F19E
:103888000800FFF77BFB0546002D49D1274A936DB9
:1038980023F4E053D4F89C100B43936516E00221FF
:1038A80004F12800FFF7F0FB0546BEE72E46D5E7F2
:1038B800012635460AE0B3F5805FE5D0B3F5A05F91
:1038C800E2D0B3F5406FDFD001263546216801F01C
:1038D80080020023134338D0D4F8A030B3F5804FCA
:1038E80000F0AA8026D843B1B3F5005F1AD10021B1
:1038F80004F10800FFF742FB0546002D40F0A380C5
:103908000A4A936D23F46043D4F8A0100B439365DF
:103918001BE0022104F12800FFF7B6FB0546B3E7D8
:103928002E46D3E7012635460FE000BF0044025873
:10393800CFFFFF00B3F5004FDFD0B3F5204FDCD049
:10394800B3F5C04FD9D001263546216801F00802E9
:10395800002313430CD0D4F88430B3F5805F74D0BF
:10396800AB4A536D23F44053D4F884100B4353658A
:10397800216801F01002002313430CD0D4F89830CA
:10398800B3F5807F6AD0A24A936D23F44073D4F8CC
:1039980098100B439365216801F400220023134318
:1039A8000BD0D4F8A430B3F5803F70D0B3F5003F06
:1039B80063D0002B5BD001263546216801F48022B4
:1039C800002313430CD0D4F88830B3F5001F76D009
:1039D800B3F5401F69D0B3F5801F61D00126354685
:1039E800216801F480320023134307D0236D002B94
:1039F8006ED0B3F5803F79D001263546216801F0B5
:103A08000052002313437AD1216801F400320023C5
:103A1800134300F08280D4F88030B3F5807F00F043
:103A2800F98076D9B3F5007F00F0F980B3F5407FCF
:103A380000F0F580012670E0022104F12800FFF76C
:103A480023FB054659E72E467FE7022104F12800AB
:103A5800FFF71AFB002883D0012681E7022104F131
:103A68002800FFF711FB00288DD001268BE70021E5
:103A780004F10800FFF782FA05467DB9644A936DA0
:103A880023F44033D4F8A4100B43936595E702213F
:103A980004F12800FFF7F8FA0546EEE72E468CE712
:103AA8005B4AD36A43F40033D3627DB9584A536DF5
:103AB80023F44013D4F888100B43536590E7012191
:103AC80004F12800FFF7E0FA0546EEE72E4687E7FF
:103AD8004F4AD36A43F40033D36275B94C4AD36C66
:103AE80023F48033216D0B43D36487E7022104F16B
:103AF8000800FFF743FA0546EFE72E467EE7022166
:103B080004F12800FFF7C0FA00283FF47DAF012632
:103B18007AE7002B00F083800126216801F48012E7
:103B28000023134306D03A4A136D23F00043616F14
:103B38000B431365216801F080520023134307D01B
:103B4800334A136923F48043D4F8B8100B43136144
:103B5800216801F400120023134306D02C4A136D88
:103B680023F08073E16E0B431365216801F08042F6
:103B78000023134309D0264B1A6922F400421A6124
:103B88001A69D4F8BC100A431A61216801F000428E
:103B98000023134306D01E4AD36C23F04053616DB3
:103BA8000B43D364216801F400020023134307D0B8
:103BB800174A536D23F44003D4F88C100B43536514
:103BC8006168002201F00103134334D161680022C7
:103BD80001F00203134337D16168002201F00403A6
:103BE80013433AD16168002201F0080313433DD121
:103BF8006168002201F01003134340D1616800227C
:103C080001F02003134343D106B101263046F8BD25
:103C180000440258234AD36A43F40033D36245B9B7
:103C2800204A536D23F44073D4F880100B43536536
:103C380073E72E4671E7002104F10800FFF79EF9AB
:103C48000028C3D00646C1E7012104F10800FFF7A8
:103C580095F90028C0D00646BEE7022104F1080005
:103C6800FFF78CF90028BDD00646BBE7002104F118
:103C78002800FFF709FA0028BAD00646B8E701215C
:103C880004F12800FFF700FA0028B7D00646B5E788
:103C9800022104F12800FFF7F7F90028B4D00646FE
:103CA800B2E700BF00440258C36B5B09C068083024
:103CB800C00803FB00007047002800F0B78070B50B
:103CC80004460023836205685C4B5D4E9D4218BF25
:103CD800B54214BF0126002607D0A3F574439D42C0
:103CE80003D0C3680F2B00F2A3802046FFF7DCFF48
:103CF8002EB1544B9D4202D0082800F29B804F4AB7
:103D08004F4B9D4218BF954203D003F580639D42F7
:103D180002D1102800F2908094F88130F3B1022388
:103D280084F881302268136823F001031360216846
:103D38008A6802F4F812A369B3F1806F14D063683B
:103D480013F4800F23D0E368062B20D921680B6871
:103D580023F48073206D03430B601DE084F88030EA
:103D68002046FEF759F8DAE76368B3F5800F06D006
:103D7800002BE4D1A36BB3F1805FE0D102E0A06B2C
:103D88000028F5D10B6843F480530B60D7E721680E
:103D98000B6823F480730B60E369A16A0B43134338
:103DA800E26B1343E16822680B439360636B626ABA
:103DB8001343A26B1343A269134322691343626935
:103DC8001343226A134362681343E26C1343A268E5
:103DD8001343A26C1343A16D22680B43D36063683D
:103DE8006BB92268936823F4C05343F4006393606B
:103DF8002268936823F4C06343F480639360226865
:103E0800136D23F001031365636813F4800F06D064
:103E18002268D36823F00043616D0B43D360002010
:103E2800C4F88400012384F8813070BD01207047F4
:103E38000120FAE70120F8E70120F6E70030014009
:103E480000380040003C004008B50349034800F032
:103E580045F8034B187008BDC8020024E40100248B
:103E6800CC020024024B01221A701878704700BF58
:103E7800E0010024024B01221A701878704700BF35
:103E8800E00100240020704700207047012070479F
:103E9800114B5B7AEBB970B4064603F0FF000E4B8A
:103EA8005C7AE4B200251D555C7A03EB84046660F5
:103EB8005C7A1C4422725A7AD2B2541CE4B25C7204
:103EC80030320A703A234B702F238B70CD7070BC40
:103ED80070470120704700BF2002002408B5002267
:103EE800FFF7D6FF08BD0000014B1868704700BFF8
:103EF80000000024F8B500BFF8BC08BC9E46704717
:0C3F0800F8B500BFF8BC08BC9E4670472E
:103F1800494E4600696E66004E414E006E616E0065
:103F28003000496E66696E697479004E614E000012
:103F38000080E03779C34143176E05B5B5B893469D
:103F4800F5F93FE9034F384D321D30F94877825A69
:103F58003CBF737FDD4F1575000000000000F03F87
:103F6800000000000000244000000000000059404C
:103F78000000000000408F40000000000088C3409F
:103F880000000000006AF8400000000080842E4114
:103F980000000000D01263410000000084D7974160
:103FA8000000000065CDCD41000000205FA0024266
:103FB800000000E876483742000000A2941A6D42DB
:103FC800000040E59C30A2420000901EC4BCD642CE
:103FD80000003426F56B0C430080E03779C3414379
:103FE80000A0D8855734764300C84E676DC1AB43EF
:103FF800003D9160E458E143408CB5781DAF15440D
:1040080050EFE2D6E41A4B4492D54D06CFF08044E7
:10401800F64AE1C7022DB544B49DD9794378EA44FC
:1040280005000000190000007D0000004300504F0B
:10403800534958002E000020202020202020202036
:104048002828282828202020202020202020202040
:104058002020202020202088101010101010101070
:1040680010101010101010040404040404040404B4
:10407800041010101010101041414141414101013C
:104088000101010101010101010101010101010118
:104098000101101010101010424242424242020226
:1040A80002020202020202020202020202020202E8
:1040B8000202101010102000000000000000000094
:1040C80000000000000000000000000000000000E8
:1040D80000000000000000000000000000000000D8
:1040E80000000000000000000000000000000000C8
:1040F80000000000000000000000000000000000B8
:1041080000000000000000000000000000000000A7
:104118000000000000000000000000000000000097
:104128000000000000000000000000000000000087
:10413800000000000000000000000000010203046D
:08414800010203040607080947
:04415000CD02000894
:04415400A9020008B4
:10415800040000240000000000000000000000002F
:104168000000000000000000000000000000000047
:104178000000000000000000000000000000000037
:104188000000000000000000000000000000000027
:104198000000000000000000000000000000000017
:1041A8000000000000000000000000000000000007
:1041B80000000000430000000000000000000000B4
:1041C80000000000000000000000000000000000E7
:1041D8000000000043000000000000000000000094
:1041E80000000000000000000000000000000000C7
:1041F8000000000043000000000000000000000074
:1042080000000000000000000000000000000000A6
:104218000000000043000000000000000000000053
:104228000000000000000000000000000000000086
:104238000000000043000000000000000000000033
:104248000000000000000000000000000000000066
:104258000000000043000000000000000000000013
:104268000000000000000000000000000000000046
:1042780000000000430000000000000000000000F3
:104288000000000000000000000000000000000026
:1042980000000000F51B0008B91B00080000000022
:1042A8003E4000083C4000083D4000083D400008F2
:1042B8003D4000083D4000083D4000083D400008E2
:1042C8003D4000083D4000083D400008FFFFFFFF5B
:1042D800FFFFFFFFFFFFFFFFFFFF0000010041534B
:1042E80043494900000000000000000000000000F1
:1042F8000000000000000000000000000000415322
:1043080043494900000000000000000000000000D0
:104318000000000000000000000000000000000095
:104328000090D0030090D0030100000010000000AE
:10433800010000006D3E00087D3E00088D3E00082B
:08434800913E0008953E0008BB
:0400000508001FE5EB
:00000001FF
